{
  "contractName": "ProofOfDelivery",
  "abi": [
    {
      "inputs": [],
      "stateMutability": "nonpayable",
      "type": "constructor"
    },
    {
      "anonymous": false,
      "inputs": [
        {
          "indexed": true,
          "internalType": "address",
          "name": "from",
          "type": "address"
        },
        {
          "indexed": false,
          "internalType": "address",
          "name": "to",
          "type": "address"
        }
      ],
      "name": "itemReceived",
      "type": "event"
    },
    {
      "anonymous": false,
      "inputs": [
        {
          "indexed": true,
          "internalType": "address",
          "name": "from",
          "type": "address"
        },
        {
          "indexed": false,
          "internalType": "address",
          "name": "to",
          "type": "address"
        }
      ],
      "name": "itemSent",
      "type": "event"
    },
    {
      "inputs": [
        {
          "internalType": "address",
          "name": "",
          "type": "address"
        }
      ],
      "name": "receiverMap",
      "outputs": [
        {
          "internalType": "address",
          "name": "",
          "type": "address"
        }
      ],
      "stateMutability": "view",
      "type": "function",
      "constant": true
    },
    {
      "inputs": [
        {
          "internalType": "address",
          "name": "",
          "type": "address"
        }
      ],
      "name": "senderMap",
      "outputs": [
        {
          "internalType": "address",
          "name": "",
          "type": "address"
        }
      ],
      "stateMutability": "view",
      "type": "function",
      "constant": true
    },
    {
      "inputs": [
        {
          "internalType": "address",
          "name": "receiver",
          "type": "address"
        }
      ],
      "name": "sendTo",
      "outputs": [
        {
          "internalType": "bool",
          "name": "",
          "type": "bool"
        }
      ],
      "stateMutability": "nonpayable",
      "type": "function"
    },
    {
      "inputs": [
        {
          "internalType": "address",
          "name": "sender",
          "type": "address"
        }
      ],
      "name": "receieve",
      "outputs": [
        {
          "internalType": "bool",
          "name": "",
          "type": "bool"
        }
      ],
      "stateMutability": "nonpayable",
      "type": "function"
    }
  ],
  "bytecode": "0x608060405234801561001057600080fd5b5061055d806100206000396000f3fe608060405234801561001057600080fd5b506004361061004c5760003560e01c8063344ce0f81461005157806395fe5b1b146100bf578063e6d252451461012d578063ecb8de0914610187575b600080fd5b6100936004803603602081101561006757600080fd5b81019080803573ffffffffffffffffffffffffffffffffffffffff1690602001909291905050506101e1565b604051808273ffffffffffffffffffffffffffffffffffffffff16815260200191505060405180910390f35b610101600480360360208110156100d557600080fd5b81019080803573ffffffffffffffffffffffffffffffffffffffff169060200190929190505050610214565b604051808273ffffffffffffffffffffffffffffffffffffffff16815260200191505060405180910390f35b61016f6004803603602081101561014357600080fd5b81019080803573ffffffffffffffffffffffffffffffffffffffff169060200190929190505050610247565b60405180821515815260200191505060405180910390f35b6101c96004803603602081101561019d57600080fd5b81019080803573ffffffffffffffffffffffffffffffffffffffff1690602001909291905050506103b1565b60405180821515815260200191505060405180910390f35b60006020528060005260406000206000915054906101000a900473ffffffffffffffffffffffffffffffffffffffff1681565b60016020528060005260406000206000915054906101000a900473ffffffffffffffffffffffffffffffffffffffff1681565b6000816000803373ffffffffffffffffffffffffffffffffffffffff1673ffffffffffffffffffffffffffffffffffffffff16815260200190815260200160002060006101000a81548173ffffffffffffffffffffffffffffffffffffffff021916908373ffffffffffffffffffffffffffffffffffffffff16021790555033600160008473ffffffffffffffffffffffffffffffffffffffff1673ffffffffffffffffffffffffffffffffffffffff16815260200190815260200160002060006101000a81548173ffffffffffffffffffffffffffffffffffffffff021916908373ffffffffffffffffffffffffffffffffffffffff1602179055503373ffffffffffffffffffffffffffffffffffffffff167fae7b2b2b92ff6ea5323ad7a4cc66efbf847284d1af5eb089300cb2a2f30073e583604051808273ffffffffffffffffffffffffffffffffffffffff16815260200191505060405180910390a260019050919050565b6000600160003373ffffffffffffffffffffffffffffffffffffffff1673ffffffffffffffffffffffffffffffffffffffff16815260200190815260200160002060009054906101000a900473ffffffffffffffffffffffffffffffffffffffff1673ffffffffffffffffffffffffffffffffffffffff168273ffffffffffffffffffffffffffffffffffffffff1614610496576040517f08c379a00000000000000000000000000000000000000000000000000000000081526004018080602001828103825260248152602001806105046024913960400191505060405180910390fd5b8173ffffffffffffffffffffffffffffffffffffffff167ff35490daffc5a53aa83df58be364f4523759ac58ccebff62f7ec18837d15ca2033604051808273ffffffffffffffffffffffffffffffffffffffff16815260200191505060405180910390a26001905091905056fe54686973207061636b616765206973206e6f7420666f7220746869732061646472657373a2646970667358221220b6774daf1c15f81a9868e11354588a24d6e3b264566b1e751c5621c76c75708764736f6c63430007060033",
  "immutableReferences": {},
  "source": "// SPDX-License-Identifier: MIT\r\npragma solidity >=0.6.0 <0.8.0;\r\n\r\nimport \"@openzeppelin/contracts/token/ERC20/ERC20.sol\";\r\n\r\ncontract ProofOfDelivery {\r\n    //add mappings\r\n    mapping(address => address) public senderMap;\r\n    mapping(address => address) public receiverMap;\r\n\r\n    //add minter changed event\r\n    event itemSent(address indexed from, address to);\r\n    event itemReceived(address indexed from, address to);\r\n\r\n    constructor() {\r\n        //assign token deployed contract to variable\r\n    }\r\n\r\n    function sendTo(address receiver) public returns (bool) {\r\n        senderMap[msg.sender] = receiver;\r\n        receiverMap[receiver] = msg.sender;\r\n\r\n        emit itemSent(msg.sender, receiver);\r\n        return true;\r\n    }\r\n\r\n    //Add pass minter role function\r\n\r\n    function receieve(address sender) public returns (bool) {\r\n        //check if msg.sender have minter role\r\n        require(\r\n            sender == receiverMap[msg.sender],\r\n            \"This package is not for this address\"\r\n        );\r\n\r\n        emit itemReceived(sender, msg.sender);\r\n        return true;\r\n    }\r\n}\r\n",
  "sourcePath": "/mnt/c/Users/kengh/Desktop/coding-projects/blockchain-project/dbank/src/contracts/ProofOfDelivery.sol",
  "compiler": {
    "name": "solc",
    "version": "0.7.6+commit.7338295f.Emscripten.clang"
  },
  "schemaVersion": "3.3.4",
  "updatedAt": "2021-03-09T01:38:22.168Z",
  "networkType": "ethereum",
  "devdoc": {
    "kind": "dev",
    "methods": {},
    "version": 1
  },
  "userdoc": {
    "kind": "user",
    "methods": {},
    "version": 1
  }
}